:040000007DEFBFF0E1
:020000040001F9
:107EFA00000196EFBFF09EAA85EFBFF087EFBFF0B3
:107F0A0080EFBFF0AE501200740ED36E948E949C24
:107F1A00AC98AC84AC8AB886CF0EAF6EAB8EAB8809
:107F2A0012009290000E806E899089ECBFF080EC6E
:107F3A00BFF0056EACA2A4EFBFF0A6EFBFF09FEFB3
:107F4A00BFF080ECBFF0076EACA2AEEFBFF0B0EFAF
:107F5A00BFF0A9EFBFF080ECBFF0066ED00E072489
:107F6A00036E046AFF0E042204BEC5EFBFF004507C
:107F7A0009E1020E035CD8A0C5EFBFF0C7EFBFF05E
:107F8A00D4EFBFF08980060E026E130E016EAE0E9C
:107F9A00E82EFED7012EFCD7022EFAD78990310E91
:107FAA000518D8A4DBEFBFF0DDEFBFF09CEFBFF000
:107FBA00300E0718D8A4E4EFBFF0E6EFBFF09CEF4D
:107FCA00BFF0300E0618D8A4EDEFBFF0EFEFBFF008
:107FDA009CEFBFF08980060E026E130E016EAE0E84
:107FEA00E82EFED7012EFCD7022EFAD789909CEFF5
:067FFA00BFF000EF00F0F3
:020000040020DA
:08000000FFFFFFFFFFFFFFFF00
:020000040030CA
:0E000000FF08191EFF0084FF3FC03FE03F4095
:00000001FF
